:020000040800F2
:100000000050002029140008791400087914000811
:100010007914000879140008791400080000000021
:10002000000000000000000000000000791400083B
:100030007914000800000000791400083910000845
:10004000791400087914000879140008791400085C
:100050007914000879140008C10900080D0A000885
:10006000791400087914000879140008791400083C
:10007000791400087914000879140008791400082C
:10008000791400087914000879140008791400081C
:10009000791400087914000879140008791400080C
:1000A00079140008791400087914000879140008FC
:1000B00079140008791400087914000879140008EC
:1000C00079140008791400087914000879140008DC
:1000D0007914000845120008791400087914000802
:1000E0007914000879140008000000007914000851
:1000F00079140008791400087914000879140008AC
:10010000791400087914000879140008791400089B
:10011000791400087914000879140008791400088B
:10012000791400087914000879140008791400087B
:1001300010B5054C237833B9044B13B10448AFF321
:1001400000800123237010BD00000020000000008B
:100150000015000808B5034B1BB103490348AFF372
:10016000008008BD00000000040000200015000809
:10017000034613F8012B002AFBD1181A01387047E7
:1001800080B400AF064B00221A70064B00221A60A2
:10019000054B00221A7000BFBD4680BC704700BFEF
:1001A0001C000020200000202400002080B582B028
:1001B00000AF78600B46FB7001F020F901F00EF9FA
:1001C0007868FFF7D5FF03469BB21946786801F0BF
:1001D00007F800F03FFF0346044A1360044AFB7827
:1001E000137000BF0837BD4680BD00BF200000204F
:1001F0001C00002080B588B000AF00F02BFFF86134
:10020000A94B1B780D2B00F2CD8101A252F823F0EF
:1002100049020008530200089B020008A5020008DA
:10022000E7020008F10200086703000871030008F4
:10023000C9030008D3030008490400085304000858
:10024000E10400085F05000801219848FFF7AEFFB0
:10025000A8E101F07BF80346002B12D001F08AF8E8
:1002600003469349184601F010F90346002B05D0C8
:100270008D4B02221A708F4B00221A7001F0AEF8DB
:1002800083E18D4B1B68FA69D31AB3F5FA6F40F21C
:100290007C81854B0D221A7077E103218748FFF797
:1002A00085FF7FE101F052F80346002B0FD001F0EB
:1002B00061F803467E49184601F0E7F80346002B33
:1002C00002D0794B04221A7001F088F85FE17A4B72
:1002D0001B68FA69D31AB3F5FA6F40F25881724B72
:1002E0000D221A7053E105217548FFF75FFF59E1B0
:1002F00001F02CF80346002B28D001F03BF83860C1
:100300007049386801F0C1F80346002B0AD06849EB
:10031000386801F0BAF80346002B03D0624B06227E
:100320001A7010E06849386801F0AFF80346002BF6
:1003300006D16649386801F0A8F80346002B02D0C0
:10034000594B0D221A7001F049F822E15A4B1B68F3
:10035000FA69D31A42F21072934240F21A81524B58
:100360000D221A7015E107215948FFF71FFF19E107
:1003700000F0ECFF0346002B1AD000F0FBFF786082
:100380004B49786801F081F80346002B03D0464BB7
:1003900008221A7009E04D49786801F076F80346A2
:1003A000002B02D0404B0D221A7001F017F8F2E03A
:1003B000414B1B68FA69D31AB3F5FA6F40F2EB8030
:1003C000394B0D221A70E6E009214248FFF7EEFE94
:1003D000E8E000F0BBFF0346002B28D000F0CAFF86
:1003E000B8603349B86801F050F80346002B06D1D5
:1003F0003949B86801F049F80346002B03D02A4B6D
:100400000A221A7010E03149B86801F03EF803463C
:10041000002B06D12C49B86801F037F80346002BB1
:1004200002D0214B0D221A7000F0D8FFB5E0224B0C
:100430001B68FA69D31A42F21072934240F2AD80FF
:10044000194B0D221A70A8E00B212448FFF7AEFECD
:10045000A8E000F07BFF0346002B1AD000F08AFFD3
:10046000F8601349F86801F010F80346002B03D038
:100470000D4B0C221A7009E01449F86801F005F8D8
:100480000346002B02D0084B0D221A7000F0A6FF85
:1004900085E0094B1B68FA69D31AB3F5FA6F7ED968
:1004A000014B0D221A707AE01C000020181500087C
:1004B000201500082400002020000020241500083A
:1004C000341500085C1500086C1500087415000848
:1004D0007C150008BC150008E8150008F815000890
:1004E00000F034FF0346002B5BD000F043FFB861FF
:1004F0002E49B86900F0C9FF0346002B2AD02C49C9
:10050000B86900F0C2FF0346002B0ED0012000F0B6
:1005100097F9284B3B613869FFF72AFE03469BB2E7
:100520001946386900F05CFE14E02349B86900F010
:10053000ACFF0346002B0DD0002000F081F91F4BCB
:100540007B617869FFF714FE03469BB21946786910
:1005500000F046FE00F052FF00F040FF21E0184B93
:100560001B78022B09D8164B1B780133DAB2144BD7
:100570001A70144B00221A7014E001211248FFF780
:1005800015FE0F4B00221A700CE000BF0AE000BFFE
:1005900008E000BF06E000BF04E000BF02E000BFCB
:1005A00000E000BF00BF2037BD4680BD2016000818
:1005B000301600083416000860160008641600089B
:1005C000240000201C0000209416000880B582B092
:1005D00000AF174B1B78DBB2002B24D0154B1B68E8
:1005E00003F00103002B1ED1114B00221A70124B95
:1005F0001B78DBB2012B0BD1104B3B603868FFF747
:10060000B7FD03469BB21946386800F0E9FD0AE0E1
:100610000B4B7B607868FFF7ABFD03469BB2194636
:10062000786800F0DDFD00BF0837BD4680BD00BF23
:100630002C000020440002402D0000203416000849
:100640006416000880B400AF044B00221A70044BFB
:1006500000221A6000BFBD4680BC70472500002004
:100660002800002080B582B000AF00F0F5F9034605
:10067000FB7100F0FDF90346BB7100F0EBFC386044
:10068000454B1B78052B00F2838001A252F823F022
:10069000A9060008CB060008E506000811070008B7
:1006A0003707000851070008FB79002B03D03A4BAD
:1006B00001221A7061E0BB79002B5ED0364B032219
:1006C0001A70364A3B68136057E0FB7983F00103E8
:1006D000DBB2002B53D0304B02221A702F4A3B68FA
:1006E00013604CE0BB79002B06D0012000F0A8F885
:1006F000294B00221A7044E0284B1B683A68D31A31
:1007000042F2107293423CD9234B00221A7038E017
:10071000FB79002B03D0204B04221A7033E01F4BCF
:100720001B683A68D31A42F2107293422BD91A4BC3
:1007300000221A7027E0FB7983F00103DBB2002B63
:1007400023D0154B05221A70144A3B6813601CE035
:10075000BB79002B03D0104B00221A7017E00F4B0F
:100760001B683A68D31A0E4A934210D9002000F051
:1007700067F8094B00221A7009E000BF08E000BFCB
:1007800006E000BF04E000BF02E000BF00E000BFE1
:1007900000BF0837BD4680BD25000020280000208E
:1007A000E093040080B500AF00F03CFC00F01EF8C0
:1007B00000F0B8F800F068F900F09CF900F0A8FA31
:1007C00000F0D0F94FF4784000F04AFB00F092FCC2
:1007D000FFF738FFFFF7D4FCFFF744FFFFF70AFDF0
:1007E00000F054FDFFF7F2FE00BFF5E780B400AF64
:1007F0000F4B9B690E4A43F0040393610D4B5B68FA
:100800000C4A23F00F0353600A4B5B68094A43F01C
:1008100002035360074B4FF080721A61064B0022AF
:100820001A70064B00221A7000BFBD4680BC70478C
:1008300000100240000801402D0000202C00002084
:1008400080B483B000AF0346FB71104B1B78DBB262
:10085000FA799A4215D0FB79012B04D10C4B4FF455
:1008600080721A6106E0FB79002B03D1084B4FF030
:1008700080721A61054AFB791370064B01221A70C7
:1008800000E000BF0C37BD4680BC70472D00002043
:10089000000801402C00002080B483B000AF034664
:1008A000FB7197F90730002B0BDBFB7903F01F027C
:1008B000064997F907305B09012000FA02F241F876
:1008C000232000BF0C37BD4680BC704700E100E02C
:1008D00080B483B000AF03463960FB7197F90730ED
:1008E000002B0ADB3B68DAB20C4997F9073012019A
:1008F000D2B20B4483F800230AE03B68DAB208491D
:10090000FB7903F00F03043B1201D2B20B441A76B9
:1009100000BF0C37BD4680BC704700BF00E100E05F
:1009200000ED00E080B500AF72B600BF204B9B69C0
:100930001F4A43F0050393611E4B1B681D4A23F0B9
:10094000FF0313601B4B1B681A4A43F088031360B4
:10095000184BDB68174A43F00303D360164B9B68C0
:10096000154A23F0FF039360144B1B68134A43F0AE
:1009700003031360114BDB68104A43F00303D36099
:100980000E4B9B680D4A43F0030393600121062040
:10099000FFF79EFF02210720FFF79AFF0620FFF7CF
:1009A0007BFF0720FFF778FF62B600BF00BF80BD66
:1009B0000010024000080140000001400004014016
:1009C00080B400AF0E4B5B6903F00103002B12D023
:1009D0000B4B5B690A4A43F001035361094B9B6867
:1009E00003F00103002B03D0074B01221A7002E031
:1009F000054B00221A7000BFBD4680BC704700BF87
:100A000000040140000801402E00002080B400AF27
:100A10000E4B5B6903F00203002B12D00B4B5B699A
:100A20000A4A43F002035361094B9B6803F0020337
:100A3000002B03D1074B01221A7002E0054B002264
:100A40001A7000BFBD4680BC704700BF0004014063
:100A5000000801402F00002080B400AF034B1B783A
:100A6000DBB21846BD4680BC704700BF2E00002098
:100A700080B400AF034B1B78DBB21846BD4680BC88
:100A8000704700BF2F00002080B400AF144B9B695B
:100A9000134A43F4805343F00E039361114B1C221D
:100AA0001A61114B01221A610E4B1A680D490F4B46
:100AB00013400B600B4B1A680A490D4B13430B6034
:100AC000094B1B68084A23F00F031360064B1B6891
:100AD000054A43F00303136000BFBD4680BC704766
:100AE0000010024000080140000C0140FF00000F10
:100AF0000033B3B080B400AF194B1B68184A23F41D
:100B000080631360164B1B68154A23F08003136043
:100B1000134B1B68124A43F004031360104B1B680D
:100B20000F4A23F4006313600D4B1B680C4A43F417
:100B3000807313600A4B1B68094A43F40073136007
:100B4000074B5B68064A43F002035360044B1B6883
:100B5000034A43F04003136000BFBD4680BC7047AA
:100B60000030014080B400AF0A4B5B69094A43F092
:100B700001035361084B1B68074A23F0010313600C
:100B8000054B064A9A60044B90221A6000BFBD468E
:100B900080BC704700100240300002400C30014021
:100BA00080B483B000AF78603960144B1B6803F0E9
:100BB0000103002B06D000BF114B1B6803F4007328
:100BC000002BF9D00D4B1B680C4A23F00103136076
:100BD0000B4B4FF480725A60084A7B68D360074A17
:100BE0003B685360054B1B68044A43F001031360E4
:100BF00000BF0C37BD4680BC704700BF30000240CC
:100C00000000024080B400AF00BF094B1B6803F432
:100C10000073002BF9D000BF064B9B6803F08003E4
:100C2000002BF9D100BF00BFBD4680BC704700BF9C
:100C3000000002400030014080B584B000AF786011
:100C400000F008FAF86000BF00F004FA0246FB6802
:100C5000D31A7A689A42F7D800BF00BF1037BD4652
:100C600080BD000080B483B000AF0346FB7100BFBD
:100C70000E4B9B6803F00203002BF9D00B4AFB7963
:100C8000D36000BF094B9B6803F00203002BF9D02F
:100C900000BF064B9B6803F08003002BF9D100BF17
:100CA00000BF0C37BD4680BC704700BF003001401C
:100CB00080B582B000AF0346FB71084B08225A6131
:100CC000064B10225A61FB791846FFF7CBFF034B06
:100CD00010221A6100BF0837BD4680BD00080140E0
:100CE00080B582B000AF0346FB71084B08221A6141
:100CF000064B10225A61FB791846FFF7B3FF034BEE
:100D000010221A6100BF0837BD4680BD00080140AF
:100D100080B500AF2A4B10221A61294B04221A61B8
:100D20000A20FFF789FF264B04225A611420FFF79F
:100D300083FF234B04221A617820FFF77DFF0120F7
:100D4000FFF7B6FF6420FFF777FFC020FFF7B0FF83
:100D50002320FFF7C5FFC120FFF7AAFF1020FFF7F0
:100D6000BFFFC520FFF7A4FF3E20FFF7B9FF2820F3
:100D7000FFF7B6FFC720FFF79BFF8620FFF7B0FF06
:100D80003620FFF795FF4820FFF7AAFF3A20FFF72C
:100D90008FFF5520FFF7A4FF2020FFF789FF1120C8
:100DA000FFF786FF7820FFF747FF2920FFF780FF36
:100DB0001420FFF741FF034B01221A6100BF80BDE1
:100DC00000080140000C014090B583B000AF04461C
:100DD000084611461A462346FB800346BB800B4655
:100DE0007B8013463B802A20FFF762FFFB881B0AAB
:100DF0009BB2DBB21846FFF773FFFB88DBB21846E5
:100E0000FFF76EFF7B881B0A9BB2DBB21846FFF729
:100E100067FF7B88DBB21846FFF762FF2B20FFF7E6
:100E200047FFBB881B0A9BB2DBB21846FFF758FF8F
:100E3000BB88DBB21846FFF753FF3B881B0A9BB207
:100E4000DBB21846FFF74CFF3B88DBB21846FFF7D2
:100E500047FF2C20FFF72CFF00BF0C37BD4690BD8D
:100E600080B5ADF5965D84B000AF024607F53473EA
:100E7000A3F2CA231A8007F53473A3F2CA231B888E
:100E80001B0A9BB207F5965202F10B02137007F58D
:100E90003473A3F2CA231B8807F5965202F10A02A3
:100EA0001370002307F5965202F10E02138029E019
:100EB00007F5965303F10E031B8807F53472A2F56C
:100EC000327207F5965101F10B010978D15407F5FB
:100ED000965303F10E031B88013307F53472A2F514
:100EE000327207F5965101F10A010978D15407F5DC
:100EF000965303F10E031B88023307F5965202F155
:100F00000E02138007F5965303F10E031B88B3F509
:100F1000965FCDD340F23F13EF2200210020FFF770
:100F200053FF194B08221A61174B10225A610023F4
:100F300007F5965202F10C02138014E007F110033A
:100F4000083B4FF496511846FFF72AFEFFF75AFE6A
:100F500007F5965303F10C031B88013307F59652EE
:100F600002F10C02138007F5965303F10C031B8862
:100F70001F2BE3D9044B10221A6100BF07F59657C7
:100F80001037BD4680BD00BF0008014080B483B06B
:100F900000AF03463960FB7197F90730002B0ADB7D
:100FA0003B68DAB20C4997F907301201D2B20B4410
:100FB00083F800230AE03B68DAB20849FB7903F0C2
:100FC0000F03043B1201D2B20B441A7600BF0C3758
:100FD000BD4680BC704700BF00E100E000ED00E0CE
:100FE00080B582B000AF78607B68013BB3F1807F51
:100FF00001D301230FE00A4A7B68013B53600F21B4
:101000004FF0FF30FFF7C2FF054B00229A60044B00
:1010100007221A60002318460837BD4680BD00BF6E
:1010200010E000E080B500AF0248FFF7D9FF00BF35
:1010300080BD00BF4019010080B400AF044B1B68A5
:101040000133034A136000BFBD4680BC704700BF38
:101050003000002080B400AF024B1B681846BD462C
:1010600080BC70473000002080B483B000AF0346DE
:10107000FB7197F90730002B0BDBFB7903F01F02A4
:10108000064997F907305B09012000FA02F241F89E
:10109000232000BF0C37BD4680BC704700E100E054
:1010A00080B483B000AF03463960FB7197F9073015
:1010B000002B0ADB3B68DAB20C4997F907301201C2
:1010C000D2B20B4483F800230AE03B68DAB2084945
:1010D000FB7903F00F03043B1201D2B20B441A76E2
:1010E00000BF0C37BD4680BC704700BF00E100E088
:1010F00000ED00E080B500AF314B9B69304A43F40E
:10110000804343F0050393612D4B5B692C4A43F008
:10111000010353612B4B5B682A4A23F47F635360BE
:10112000284B5B68274A43F0B0035360254B5B684C
:10113000244A43F480635360234B40F271229A6047
:10114000224B1B68214A23F001031360204B4FF40C
:1011500088325A601D4B1F4A9A601C4B1E4ADA6047
:101160001A4B4FF480725A60184BA0221A60174B2A
:101170001B68164A43F001031360184B154A9A6026
:10118000164B90221A60104B5B690F4A43F0C00364
:1011900053610D4BDB680C4A43F01003D3600A4BDC
:1011A000DB68094A43F4005343F00C03D360012188
:1011B0002520FFF775FF2520FFF756FF00BF80BDF4
:1011C0000010024000080140003801405800024071
:1011D0000000024004380140340000204400024076
:1011E00080B483B000AF78600B467B80134B1B68E4
:1011F00003F00103002B06D000BF114B1B6803F462
:101200000053002BF9D00D4B1B680C4A23F001034F
:1012100013600B4B4FF480525A60084A7B68D360CE
:10122000064A7B885360054B1B68044A43F0010360
:10123000136000BF0C37BD4680BC704744000240BD
:101240000000024080B483B000AF0D4B1B6803F078
:101250001003002B0ED00A4B1B687B60084B5B68A9
:101260007B607B68074B5B689BB2C3F580739AB267
:10127000054B1A8000BF0C37BD4680BC704700BFCD
:1012800000380140580002403401002080B58EB083
:1012900000AF002387F8373020E0274B1B881A4621
:1012A000264B9B5C87F8363097F83730302B0AD8BE
:1012B00097F837305A1C87F8372038333B4497F873
:1012C000362003F8342C1C4B1B8801335A42DBB206
:1012D000D2B258BF53429AB2174B1A80164B1A8893
:1012E000174B1B889BB29A42D7D197F83730002B07
:1012F0001DD097F8373038333B44002203F8342CA4
:101300003B1D1049184600F0C0F80346002B03D0DF
:101310000120FFF795FA0AE03B1D0B49184600F043
:10132000B4F80346002B02D00020FFF789FA00BF73
:101330003837BD4680BD00BF360100203400002094
:1013400034010020A0160008A416000880B400AFE5
:10135000064B1B889AB2064B1B889A4214BF012386
:101360000023DBB21846BD4680BC70473401002024
:101370003601002080B483B000AF0023FB80134B04
:101380001B88BB8011E0BA88FB88591CF98019467C
:101390000F4B9B5CDAB20F4B5A54BB8801335A4255
:1013A000DBB2D2B258BF5342BB800B4B1B889BB2FF
:1013B000BA889A42E7D1FB88064A0021D154054BEE
:1013C00018460C37BD4680BC704700BF3601002070
:1013D00034000020380100203401002080B400AF28
:1013E000044B1B889AB2044B1A8000BFBD4680BCD8
:1013F000704700BF340100203601002080B500AFE7
:101400004FF480720021054800F037F8044B1B8828
:101410009AB2044B1A8000BF80BD00BF3801002083
:1014200034010020360100200D488546AFF30080CE
:101430000C480D490D4A002302E0D458C45004332F
:10144000C4188C42F9D30A4A0A4C002301E0136005
:101450000432A242FBD300F02FF8FFF7A3F9FEE716
:10146000005000200000002000000020B8160008F6
:101470000000002038020020FEE7034602449342A9
:1014800000D1704703F8011BF9E70A7870B56AB913
:1014900070BD9A4209D10C46054614F8013F002B55
:1014A000F6D015F8016F9E42F7D001300378002B7B
:1014B000EFD11846ECE7000070B500260C4D0D4B3F
:1014C0005B1B9C10A64209D1002600F019F80A4DBA
:1014D0000A4B5B1B9C10A64205D170BD55F8043B1E
:1014E00098470136EEE755F8043B98470136F2E796
:1014F000B0160008B0160008B0160008B4160008B0
:10150000F8B500BFF8BC08BC9E467047F8B500BFF0
:08151000F8BC08BC9E467047C0
:1015180041540D0A000000004F4B000041542B437A
:10152800574D4F44453D310D0A00000041542B43AF
:10153800574A41503D22574946495F53534944222F
:101548002C22574946495F50415353574F52442222
:101558000D0A00005749464920434F4E4E45435413
:10156800454400004641494C000000004552524F96
:101578005200000041542B4D515454555345524389
:1015880046473D302C312C2253544D33325F47614E
:1015980074657761795F3031222C22757365722208
:1015A8002C2270617373222C302C302C22220D0ACD
:1015B8000000000041542B4D515454434F4E4E3DB2
:1015C800302C2262726F6B65722E686976656D7158
:1015D8002E636F6D222C313838332C310D0A000000
:1015E8002B4D515454434F4E4E45435445440000EF
:1015F80041542B4D5154545355423D302C22686F61
:101608006D652F6170702F636F6D6D616E647322ED
:101618002C310D0A000000002B4D515454535542F3
:1016280052454356000000004F4E000041542B4DD8
:101638005154545055423D302C22686F6D652F73BC
:1016480074617475732F72656C6179222C224F4E08
:10165800222C312C300D0A004F46460041542B4DA8
:101668005154545055423D302C22686F6D652F738C
:1016780074617475732F72656C6179222C224F46E0
:1016880046222C312C300D0A0000000041542B5208
:1016980053540D0A000000004F4E00004F4646000C
:0816A800C8EAFF7F0100000009
:0416B00055010008D8
:0416B40031010008F8
:0400000508001429B2
:00000001FF
